{"abi":[{"type":"constructor","inputs":[],"stateMutability":"nonpayable"},{"type":"function","name":"UPGRADE_INTERFACE_VERSION","inputs":[],"outputs":[{"name":"","type":"string","internalType":"string"}],"stateMutability":"view"},{"type":"function","name":"approve","inputs":[{"name":"to","type":"address","internalType":"address"},{"name":"tokenId","type":"uint256","internalType":"uint256"}],"outputs":[],"stateMutability":"nonpayable"},{"type":"function","name":"balanceOf","inputs":[{"name":"owner","type":"address","internalType":"address"}],"outputs":[{"name":"","type":"uint256","internalType":"uint256"}],"stateMutability":"view"},{"type":"function","name":"getApproved","inputs":[{"name":"tokenId","type":"uint256","internalType":"uint256"}],"outputs":[{"name":"","type":"address","internalType":"address"}],"stateMutability":"view"},{"type":"function","name":"initialize","inputs":[{"name":"name","type":"string","internalType":"string"},{"name":"symbol","type":"string","internalType":"string"}],"outputs":[],"stateMutability":"nonpayable"},{"type":"function","name":"isApprovedForAll","inputs":[{"name":"owner","type":"address","internalType":"address"},{"name":"operator","type":"address","internalType":"address"}],"outputs":[{"name":"","type":"bool","internalType":"bool"}],"stateMutability":"view"},{"type":"function","name":"name","inputs":[],"outputs":[{"name":"","type":"string","internalType":"string"}],"stateMutability":"view"},{"type":"function","name":"owner","inputs":[],"outputs":[{"name":"","type":"address","internalType":"address"}],"stateMutability":"view"},{"type":"function","name":"ownerOf","inputs":[{"name":"tokenId","type":"uint256","internalType":"uint256"}],"outputs":[{"name":"","type":"address","internalType":"address"}],"stateMutability":"view"},{"type":"function","name":"proxiableUUID","inputs":[],"outputs":[{"name":"","type":"bytes32","internalType":"bytes32"}],"stateMutability":"view"},{"type":"function","name":"renounceOwnership","inputs":[],"outputs":[],"stateMutability":"nonpayable"},{"type":"function","name":"safeMint","inputs":[{"name":"to","type":"address","internalType":"address"},{"name":"uri","type":"string","internalType":"string"}],"outputs":[{"name":"","type":"uint256","internalType":"uint256"}],"stateMutability":"nonpayable"},{"type":"function","name":"safeTransferFrom","inputs":[{"name":"from","type":"address","internalType":"address"},{"name":"to","type":"address","internalType":"address"},{"name":"tokenId","type":"uint256","internalType":"uint256"}],"outputs":[],"stateMutability":"nonpayable"},{"type":"function","name":"safeTransferFrom","inputs":[{"name":"from","type":"address","internalType":"address"},{"name":"to","type":"address","internalType":"address"},{"name":"tokenId","type":"uint256","internalType":"uint256"},{"name":"data","type":"bytes","internalType":"bytes"}],"outputs":[],"stateMutability":"nonpayable"},{"type":"function","name":"setApprovalForAll","inputs":[{"name":"operator","type":"address","internalType":"address"},{"name":"approved","type":"bool","internalType":"bool"}],"outputs":[],"stateMutability":"nonpayable"},{"type":"function","name":"supportsInterface","inputs":[{"name":"interfaceId","type":"bytes4","internalType":"bytes4"}],"outputs":[{"name":"","type":"bool","internalType":"bool"}],"stateMutability":"view"},{"type":"function","name":"symbol","inputs":[],"outputs":[{"name":"","type":"string","internalType":"string"}],"stateMutability":"view"},{"type":"function","name":"tokenURI","inputs":[{"name":"tokenId","type":"uint256","internalType":"uint256"}],"outputs":[{"name":"","type":"string","internalType":"string"}],"stateMutability":"view"},{"type":"function","name":"transferFrom","inputs":[{"name":"from","type":"address","internalType":"address"},{"name":"to","type":"address","internalType":"address"},{"name":"tokenId","type":"uint256","internalType":"uint256"}],"outputs":[],"stateMutability":"nonpayable"},{"type":"function","name":"transferOwnership","inputs":[{"name":"newOwner","type":"address","internalType":"address"}],"outputs":[],"stateMutability":"nonpayable"},{"type":"function","name":"upgradeToAndCall","inputs":[{"name":"newImplementation","type":"address","internalType":"address"},{"name":"data","type":"bytes","internalType":"bytes"}],"outputs":[],"stateMutability":"payable"},{"type":"event","name":"Approval","inputs":[{"name":"owner","type":"address","indexed":true,"internalType":"address"},{"name":"approved","type":"address","indexed":true,"internalType":"address"},{"name":"tokenId","type":"uint256","indexed":true,"internalType":"uint256"}],"anonymous":false},{"type":"event","name":"ApprovalForAll","inputs":[{"name":"owner","type":"address","indexed":true,"internalType":"address"},{"name":"operator","type":"address","indexed":true,"internalType":"address"},{"name":"approved","type":"bool","indexed":false,"internalType":"bool"}],"anonymous":false},{"type":"event","name":"BatchMetadataUpdate","inputs":[{"name":"_fromTokenId","type":"uint256","indexed":false,"internalType":"uint256"},{"name":"_toTokenId","type":"uint256","indexed":false,"internalType":"uint256"}],"anonymous":false},{"type":"event","name":"Initialized","inputs":[{"name":"version","type":"uint64","indexed":false,"internalType":"uint64"}],"anonymous":false},{"type":"event","name":"MetadataUpdate","inputs":[{"name":"_tokenId","type":"uint256","indexed":false,"internalType":"uint256"}],"anonymous":false},{"type":"event","name":"OwnershipTransferred","inputs":[{"name":"previousOwner","type":"address","indexed":true,"internalType":"address"},{"name":"newOwner","type":"address","indexed":true,"internalType":"address"}],"anonymous":false},{"type":"event","name":"Transfer","inputs":[{"name":"from","type":"address","indexed":true,"internalType":"address"},{"name":"to","type":"address","indexed":true,"internalType":"address"},{"name":"tokenId","type":"uint256","indexed":true,"internalType":"uint256"}],"anonymous":false},{"type":"event","name":"Upgraded","inputs":[{"name":"implementation","type":"address","indexed":true,"internalType":"address"}],"anonymous":false},{"type":"error","name":"AddressEmptyCode","inputs":[{"name":"target","type":"address","internalType":"address"}]},{"type":"error","name":"ERC1967InvalidImplementation","inputs":[{"name":"implementation","type":"address","internalType":"address"}]},{"type":"error","name":"ERC1967NonPayable","inputs":[]},{"type":"error","name":"ERC721IncorrectOwner","inputs":[{"name":"sender","type":"address","internalType":"address"},{"name":"tokenId","type":"uint256","internalType":"uint256"},{"name":"owner","type":"address","internalType":"address"}]},{"type":"error","name":"ERC721InsufficientApproval","inputs":[{"name":"operator","type":"address","internalType":"address"},{"name":"tokenId","type":"uint256","internalType":"uint256"}]},{"type":"error","name":"ERC721InvalidApprover","inputs":[{"name":"approver","type":"address","internalType":"address"}]},{"type":"error","name":"ERC721InvalidOperator","inputs":[{"name":"operator","type":"address","internalType":"address"}]},{"type":"error","name":"ERC721InvalidOwner","inputs":[{"name":"owner","type":"address","internalType":"address"}]},{"type":"error","name":"ERC721InvalidReceiver","inputs":[{"name":"receiver","type":"address","internalType":"address"}]},{"type":"error","name":"ERC721InvalidSender","inputs":[{"name":"sender","type":"address","internalType":"address"}]},{"type":"error","name":"ERC721NonexistentToken","inputs":[{"name":"tokenId","type":"uint256","internalType":"uint256"}]},{"type":"error","name":"FailedCall","inputs":[]},{"type":"error","name":"InvalidInitialization","inputs":[]},{"type":"error","name":"NotInitializing","inputs":[]},{"type":"error","name":"OwnableInvalidOwner","inputs":[{"name":"owner","type":"address","internalType":"address"}]},{"type":"error","name":"OwnableUnauthorizedAccount","inputs":[{"name":"account","type":"address","internalType":"address"}]},{"type":"error","name":"UUPSUnauthorizedCallContext","inputs":[]},{"type":"error","name":"UUPSUnsupportedProxiableUUID","inputs":[{"name":"slot","type":"bytes32","internalType":"bytes32"}]}],"bytecode":{"object":"0x60a06040523073ffffffffffffffffffffffffffffffffffffffff1660809073ffffffffffffffffffffffffffffffffffffffff16815250348015610042575f5ffd5b5061005161005660201b60201c565b6101d1565b5f61006561015460201b60201c565b9050805f0160089054906101000a900460ff16156100af576040517ff92ee8a900000000000000000000000000000000000000000000000000000000815260040160405180910390fd5b67ffffffffffffffff8016815f015f9054906101000a900467ffffffffffffffff1667ffffffffffffffff16146101515767ffffffffffffffff815f015f6101000a81548167ffffffffffffffff021916908367ffffffffffffffff1602179055507fc7f505b2f371ae2175ee4913f4499e1f2633a7b5936321eed1cdaeb6115181d267ffffffffffffffff60405161014891906101b8565b60405180910390a15b50565b5f5f61016461016d60201b60201c565b90508091505090565b5f7ff0c57e16840df040f15088dc2f81fe391c3923bec73e23a9662efc9c229c6a005f1b905090565b5f67ffffffffffffffff82169050919050565b6101b281610196565b82525050565b5f6020820190506101cb5f8301846101a9565b92915050565b6080516133e66101f75f395f8181611053015281816110a8015261126201526133e65ff3fe608060405260043610610129575f3560e01c806370a08231116100aa578063ad3cb1cc1161006e578063ad3cb1cc146103bf578063b88d4fde146103e9578063c87b56dd14610411578063d204c45e1461044d578063e985e9c514610489578063f2fde38b146104c557610129565b806370a08231146102f1578063715018a61461032d5780638da5cb5b1461034357806395d89b411461036d578063a22cb4651461039757610129565b806342842e0e116100f157806342842e0e1461021f5780634cd88b76146102475780634f1ef2861461026f57806352d1902d1461028b5780636352211e146102b557610129565b806301ffc9a71461012d57806306fdde0314610169578063081812fc14610193578063095ea7b3146101cf57806323b872dd146101f7575b5f5ffd5b348015610138575f5ffd5b50610153600480360381019061014e91906126ab565b6104ed565b60405161016091906126f0565b60405180910390f35b348015610174575f5ffd5b5061017d6104fe565b60405161018a9190612779565b60405180910390f35b34801561019e575f5ffd5b506101b960048036038101906101b491906127cc565b61059b565b6040516101c69190612836565b60405180910390f35b3480156101da575f5ffd5b506101f560048036038101906101f09190612879565b6105b6565b005b348015610202575f5ffd5b5061021d600480360381019061021891906128b7565b6105cc565b005b34801561022a575f5ffd5b50610245600480360381019061024091906128b7565b6106cb565b005b348015610252575f5ffd5b5061026d60048036038101906102689190612a33565b6106ea565b005b61028960048036038101906102849190612b47565b610886565b005b348015610296575f5ffd5b5061029f6108a5565b6040516102ac9190612bb9565b60405180910390f35b3480156102c0575f5ffd5b506102db60048036038101906102d691906127cc565b6108d6565b6040516102e89190612836565b60405180910390f35b3480156102fc575f5ffd5b5061031760048036038101906103129190612bd2565b6108e7565b6040516103249190612c0c565b60405180910390f35b348015610338575f5ffd5b506103416109ab565b005b34801561034e575f5ffd5b506103576109be565b6040516103649190612836565b60405180910390f35b348015610378575f5ffd5b506103816109f3565b60405161038e9190612779565b60405180910390f35b3480156103a2575f5ffd5b506103bd60048036038101906103b89190612c4f565b610a91565b005b3480156103ca575f5ffd5b506103d3610aa7565b6040516103e09190612779565b60405180910390f35b3480156103f4575f5ffd5b5061040f600480360381019061040a9190612c8d565b610ae0565b005b34801561041c575f5ffd5b50610437600480360381019061043291906127cc565b610b05565b6040516104449190612779565b60405180910390f35b348015610458575f5ffd5b50610473600480360381019061046e9190612d0d565b610b17565b6040516104809190612c0c565b60405180910390f35b348015610494575f5ffd5b506104af60048036038101906104aa9190612d67565b610b56565b6040516104bc91906126f0565b60405180910390f35b3480156104d0575f5ffd5b506104eb60048036038101906104e69190612bd2565b610bf2565b005b5f6104f782610c76565b9050919050565b60605f610509610cd6565b9050805f01805461051990612dd2565b80601f016020809104026020016040519081016040528092919081815260200182805461054590612dd2565b80156105905780601f1061056757610100808354040283529160200191610590565b820191905f5260205f20905b81548152906001019060200180831161057357829003601f168201915b505050505091505090565b5f6105a582610cfd565b506105af82610d83565b9050919050565b6105c882826105c3610dca565b610dd1565b5050565b5f73ffffffffffffffffffffffffffffffffffffffff168273ffffffffffffffffffffffffffffffffffffffff160361063c575f6040517f64a0ae920000000000000000000000000000000000000000000000000000000081526004016106339190612836565b60405180910390fd5b5f61064f838361064a610dca565b610de3565b90508373ffffffffffffffffffffffffffffffffffffffff168173ffffffffffffffffffffffffffffffffffffffff16146106c5578382826040517f64283d7b0000000000000000000000000000000000000000000000000000000081526004016106bc93929190612e02565b60405180910390fd5b50505050565b6106e583838360405180602001604052805f815250610ae0565b505050565b5f6106f3611000565b90505f815f0160089054906101000a900460ff161590505f825f015f9054906101000a900467ffffffffffffffff1690505f5f8267ffffffffffffffff1614801561073b5750825b90505f60018367ffffffffffffffff1614801561076e57505f3073ffffffffffffffffffffffffffffffffffffffff163b145b90508115801561077c575080155b156107b3576040517ff92ee8a900000000000000000000000000000000000000000000000000000000815260040160405180910390fd5b6001855f015f6101000a81548167ffffffffffffffff021916908367ffffffffffffffff1602179055508315610800576001855f0160086101000a81548160ff0219169083151502179055505b61080a8787611013565b610812611029565b61081b33611033565b610823611047565b831561087d575f855f0160086101000a81548160ff0219169083151502179055507fc7f505b2f371ae2175ee4913f4499e1f2633a7b5936321eed1cdaeb6115181d260016040516108749190612e8c565b60405180910390a15b50505050505050565b61088e611051565b61089782611137565b6108a18282611142565b5050565b5f6108ae611260565b7f360894a13ba1a3210667c828492db98dca3e2076cc3735a920a3ca505d382bbc5f1b905090565b5f6108e082610cfd565b9050919050565b5f5f6108f1610cd6565b90505f73ffffffffffffffffffffffffffffffffffffffff168373ffffffffffffffffffffffffffffffffffffffff1603610963575f6040517f89c62b6400000000000000000000000000000000000000000000000000000000815260040161095a9190612836565b60405180910390fd5b806003015f8473ffffffffffffffffffffffffffffffffffffffff1673ffffffffffffffffffffffffffffffffffffffff1681526020019081526020015f2054915050919050565b6109b36112e7565b6109bc5f61136e565b565b5f5f6109c861143f565b9050805f015f9054906101000a900473ffffffffffffffffffffffffffffffffffffffff1691505090565b60605f6109fe610cd6565b9050806001018054610a0f90612dd2565b80601f0160208091040260200160405190810160405280929190818152602001828054610a3b90612dd2565b8015610a865780601f10610a5d57610100808354040283529160200191610a86565b820191905f5260205f20905b815481529060010190602001808311610a6957829003601f168201915b505050505091505090565b610aa3610a9c610dca565b8383611466565b5050565b6040518060400160405280600581526020017f352e302e3000000000000000000000000000000000000000000000000000000081525081565b610aeb8484846105cc565b610aff610af6610dca565b858585856115dd565b50505050565b6060610b1082611789565b9050919050565b5f610b206112e7565b5f5f5f815480929190610b3290612ed2565b919050559050610b4284826118a3565b610b4c81846118c0565b8091505092915050565b5f5f610b60610cd6565b9050806005015f8573ffffffffffffffffffffffffffffffffffffffff1673ffffffffffffffffffffffffffffffffffffffff1681526020019081526020015f205f8473ffffffffffffffffffffffffffffffffffffffff1673ffffffffffffffffffffffffffffffffffffffff1681526020019081526020015f205f9054906101000a900460ff1691505092915050565b610bfa6112e7565b5f73ffffffffffffffffffffffffffffffffffffffff168173ffffffffffffffffffffffffffffffffffffffff1603610c6a575f6040517f1e4fbdf7000000000000000000000000000000000000000000000000000000008152600401610c619190612836565b60405180910390fd5b610c738161136e565b50565b5f634906490660e01b7bffffffffffffffffffffffffffffffffffffffffffffffffffffffff1916827bffffffffffffffffffffffffffffffffffffffffffffffffffffffff19161480610ccf5750610cce82611927565b5b9050919050565b5f7f80bb2b638cc20bc4d0a60d66940f3ab4a00c1d7b313497ca82fb0b4ab0079300905090565b5f5f610d0883611a08565b90505f73ffffffffffffffffffffffffffffffffffffffff168173ffffffffffffffffffffffffffffffffffffffff1603610d7a57826040517f7e273289000000000000000000000000000000000000000000000000000000008152600401610d719190612c0c565b60405180910390fd5b80915050919050565b5f5f610d8d610cd6565b9050806004015f8481526020019081526020015f205f9054906101000a900473ffffffffffffffffffffffffffffffffffffffff16915050919050565b5f33905090565b610dde8383836001611a4f565b505050565b5f5f610ded610cd6565b90505f610df985611a08565b90505f73ffffffffffffffffffffffffffffffffffffffff168473ffffffffffffffffffffffffffffffffffffffff1614610e3a57610e39818587611c1c565b5b5f73ffffffffffffffffffffffffffffffffffffffff168173ffffffffffffffffffffffffffffffffffffffff1614610ec757610e795f865f5f611a4f565b6001826003015f8373ffffffffffffffffffffffffffffffffffffffff1673ffffffffffffffffffffffffffffffffffffffff1681526020019081526020015f205f82825403925050819055505b5f73ffffffffffffffffffffffffffffffffffffffff168673ffffffffffffffffffffffffffffffffffffffff1614610f48576001826003015f8873ffffffffffffffffffffffffffffffffffffffff1673ffffffffffffffffffffffffffffffffffffffff1681526020019081526020015f205f82825401925050819055505b85826002015f8781526020019081526020015f205f6101000a81548173ffffffffffffffffffffffffffffffffffffffff021916908373ffffffffffffffffffffffffffffffffffffffff160217905550848673ffffffffffffffffffffffffffffffffffffffff168273ffffffffffffffffffffffffffffffffffffffff167fddf252ad1be2c89b69c2b068fc378daa952ba7f163c4a11628f55a4df523b3ef60405160405180910390a480925050509392505050565b5f5f61100a611cdf565b90508091505090565b61101b611d08565b6110258282611d48565b5050565b611031611d08565b565b61103b611d08565b61104481611d83565b50565b61104f611d08565b565b7f000000000000000000000000000000000000000000000000000000000000000073ffffffffffffffffffffffffffffffffffffffff163073ffffffffffffffffffffffffffffffffffffffff1614806110fe57507f000000000000000000000000000000000000000000000000000000000000000073ffffffffffffffffffffffffffffffffffffffff166110e5611e07565b73ffffffffffffffffffffffffffffffffffffffff1614155b15611135576040517fe07c8dba00000000000000000000000000000000000000000000000000000000815260040160405180910390fd5b565b61113f6112e7565b50565b8173ffffffffffffffffffffffffffffffffffffffff166352d1902d6040518163ffffffff1660e01b8152600401602060405180830381865afa9250505080156111aa57506040513d601f19601f820116820180604052508101906111a79190612f43565b60015b6111eb57816040517f4c9c8ce30000000000000000000000000000000000000000000000000000000081526004016111e29190612836565b60405180910390fd5b7f360894a13ba1a3210667c828492db98dca3e2076cc3735a920a3ca505d382bbc5f1b811461125157806040517faa1d49a40000000000000000000000000000000000000000000000000000000081526004016112489190612bb9565b60405180910390fd5b61125b8383611e5a565b505050565b7f000000000000000000000000000000000000000000000000000000000000000073ffffffffffffffffffffffffffffffffffffffff163073ffffffffffffffffffffffffffffffffffffffff16146112e5576040517fe07c8dba00000000000000000000000000000000000000000000000000000000815260040160405180910390fd5b565b6112ef610dca565b73ffffffffffffffffffffffffffffffffffffffff1661130d6109be565b73ffffffffffffffffffffffffffffffffffffffff161461136c57611330610dca565b6040517f118cdaa70000000000000000000000000000000000000000000000000000000081526004016113639190612836565b60405180910390fd5b565b5f61137761143f565b90505f815f015f9054906101000a900473ffffffffffffffffffffffffffffffffffffffff16905082825f015f6101000a81548173ffffffffffffffffffffffffffffffffffffffff021916908373ffffffffffffffffffffffffffffffffffffffff1602179055508273ffffffffffffffffffffffffffffffffffffffff168173ffffffffffffffffffffffffffffffffffffffff167f8be0079c531659141344cd1fd0a4f28419497f9722a3daafe3b4186f6b6457e060405160405180910390a3505050565b5f7f9016d09d72d40fdae2fd8ceac6b6234c7706214fd39c1cd1e609a0528c199300905090565b5f61146f610cd6565b90505f73ffffffffffffffffffffffffffffffffffffffff168373ffffffffffffffffffffffffffffffffffffffff16036114e157826040517f5b08ba180000000000000000000000000000000000000000000000000000000081526004016114d89190612836565b60405180910390fd5b81816005015f8673ffffffffffffffffffffffffffffffffffffffff1673ffffffffffffffffffffffffffffffffffffffff1681526020019081526020015f205f8573ffffffffffffffffffffffffffffffffffffffff1673ffffffffffffffffffffffffffffffffffffffff1681526020019081526020015f205f6101000a81548160ff0219169083151502179055508273ffffffffffffffffffffffffffffffffffffffff168473ffffffffffffffffffffffffffffffffffffffff167f17307eab39ab6107e8899845ad3d59bd9653f200f220920489ca2b5937696c31846040516115cf91906126f0565b60405180910390a350505050565b5f8373ffffffffffffffffffffffffffffffffffffffff163b1115611782578273ffffffffffffffffffffffffffffffffffffffff1663150b7a02868685856040518563ffffffff1660e01b815260040161163b9493929190612fc0565b6020604051808303815f875af192505050801561167657506040513d601f19601f82011682018060405250810190611673919061301e565b60015b6116f7573d805f81146116a4576040519150601f19603f3d011682016040523d82523d5f602084013e6116a9565b606091505b505f8151036116ef57836040517f64a0ae920000000000000000000000000000000000000000000000000000000081526004016116e69190612836565b60405180910390fd5b805160208201fd5b63150b7a0260e01b7bffffffffffffffffffffffffffffffffffffffffffffffffffffffff1916817bffffffffffffffffffffffffffffffffffffffffffffffffffffffff19161461178057836040517f64a0ae920000000000000000000000000000000000000000000000000000000081526004016117779190612836565b60405180910390fd5b505b5050505050565b60605f611794611ecc565b905061179f83610cfd565b505f815f015f8581526020019081526020015f2080546117be90612dd2565b80601f01602080910402602001604051908101604052809291908181526020018280546117ea90612dd2565b80156118355780601f1061180c57610100808354040283529160200191611835565b820191905f5260205f20905b81548152906001019060200180831161181857829003601f168201915b505050505090505f611845611ef3565b90505f81510361185a5781935050505061189e565b5f8251111561188f578082604051602001611876929190613083565b604051602081830303815290604052935050505061189e565b61189885611f09565b93505050505b919050565b6118bc828260405180602001604052805f815250611f6f565b5050565b5f6118c9611ecc565b905081815f015f8581526020019081526020015f2090816118ea919061323d565b507ff8e1a15aba9398e019f0b49df1a4fde98ee17ae345cb5f6b5e2c27f5033e8ce78360405161191a9190612c0c565b60405180910390a1505050565b5f7f80ac58cd000000000000000000000000000000000000000000000000000000007bffffffffffffffffffffffffffffffffffffffffffffffffffffffff1916827bffffffffffffffffffffffffffffffffffffffffffffffffffffffff191614806119f157507f5b5e139f000000000000000000000000000000000000000000000000000000007bffffffffffffffffffffffffffffffffffffffffffffffffffffffff1916827bffffffffffffffffffffffffffffffffffffffffffffffffffffffff1916145b80611a015750611a0082611f92565b5b9050919050565b5f5f611a12610cd6565b9050806002015f8481526020019081526020015f205f9054906101000a900473ffffffffffffffffffffffffffffffffffffffff16915050919050565b5f611a58610cd6565b90508180611a9257505f73ffffffffffffffffffffffffffffffffffffffff168373ffffffffffffffffffffffffffffffffffffffff1614155b15611bc4575f611aa185610cfd565b90505f73ffffffffffffffffffffffffffffffffffffffff168473ffffffffffffffffffffffffffffffffffffffff1614158015611b0b57508373ffffffffffffffffffffffffffffffffffffffff168173ffffffffffffffffffffffffffffffffffffffff1614155b8015611b1e5750611b1c8185610b56565b155b15611b6057836040517fa9fbf51f000000000000000000000000000000000000000000000000000000008152600401611b579190612836565b60405180910390fd5b8215611bc257848673ffffffffffffffffffffffffffffffffffffffff168273ffffffffffffffffffffffffffffffffffffffff167f8c5be1e5ebec7d5bd14f71427d1e84f3dd0314c0f7b2291e5b200ac8c7c3b92560405160405180910390a45b505b84816004015f8681526020019081526020015f205f6101000a81548173ffffffffffffffffffffffffffffffffffffffff021916908373ffffffffffffffffffffffffffffffffffffffff1602179055505050505050565b611c27838383611ffb565b611cda575f73ffffffffffffffffffffffffffffffffffffffff168373ffffffffffffffffffffffffffffffffffffffff1603611c9b57806040517f7e273289000000000000000000000000000000000000000000000000000000008152600401611c929190612c0c565b60405180910390fd5b81816040517f177e802f000000000000000000000000000000000000000000000000000000008152600401611cd192919061330c565b60405180910390fd5b505050565b5f7ff0c57e16840df040f15088dc2f81fe391c3923bec73e23a9662efc9c229c6a005f1b905090565b611d106120bb565b611d46576040517fd7e6bcf800000000000000000000000000000000000000000000000000000000815260040160405180910390fd5b565b611d50611d08565b5f611d59610cd6565b905082815f019081611d6b919061323d565b5081816001019081611d7d919061323d565b50505050565b611d8b611d08565b5f73ffffffffffffffffffffffffffffffffffffffff168173ffffffffffffffffffffffffffffffffffffffff1603611dfb575f6040517f1e4fbdf7000000000000000000000000000000000000000000000000000000008152600401611df29190612836565b60405180910390fd5b611e048161136e565b50565b5f611e337f360894a13ba1a3210667c828492db98dca3e2076cc3735a920a3ca505d382bbc5f1b6120d9565b5f015f9054906101000a900473ffffffffffffffffffffffffffffffffffffffff16905090565b611e63826120e2565b8173ffffffffffffffffffffffffffffffffffffffff167fbc7cd75a20ee27fd9adebab32041f755214dbc6bffa90cc0225b39da2e5c2d3b60405160405180910390a25f81511115611ebf57611eb982826121ab565b50611ec8565b611ec761222b565b5b5050565b5f7f0542a41881ee128a365a727b282c86fa859579490b9bb45aab8503648c8e7900905090565b606060405180602001604052805f815250905090565b6060611f1482610cfd565b505f611f1e611ef3565b90505f815111611f3c5760405180602001604052805f815250611f67565b80611f4684612267565b604051602001611f57929190613083565b6040516020818303038152906040525b915050919050565b611f798383612331565b611f8d611f84610dca565b5f8585856115dd565b505050565b5f7f01ffc9a7000000000000000000000000000000000000000000000000000000007bffffffffffffffffffffffffffffffffffffffffffffffffffffffff1916827bffffffffffffffffffffffffffffffffffffffffffffffffffffffff1916149050919050565b5f5f73ffffffffffffffffffffffffffffffffffffffff168373ffffffffffffffffffffffffffffffffffffffff16141580156120b257508273ffffffffffffffffffffffffffffffffffffffff168473ffffffffffffffffffffffffffffffffffffffff16148061207357506120728484610b56565b5b806120b157508273ffffffffffffffffffffffffffffffffffffffff1661209983610d83565b73ffffffffffffffffffffffffffffffffffffffff16145b5b90509392505050565b5f6120c4611000565b5f0160089054906101000a900460ff16905090565b5f819050919050565b5f8173ffffffffffffffffffffffffffffffffffffffff163b0361213d57806040517f4c9c8ce30000000000000000000000000000000000000000000000000000000081526004016121349190612836565b60405180910390fd5b806121697f360894a13ba1a3210667c828492db98dca3e2076cc3735a920a3ca505d382bbc5f1b6120d9565b5f015f6101000a81548173ffffffffffffffffffffffffffffffffffffffff021916908373ffffffffffffffffffffffffffffffffffffffff16021790555050565b60605f5f8473ffffffffffffffffffffffffffffffffffffffff16846040516121d4919061336d565b5f60405180830381855af49150503d805f811461220c576040519150601f19603f3d011682016040523d82523d5f602084013e612211565b606091505b5091509150612221858383612424565b9250505092915050565b5f341115612265576040517fb398979f00000000000000000000000000000000000000000000000000000000815260040160405180910390fd5b565b60605f6001612275846124b1565b0190505f8167ffffffffffffffff8111156122935761229261290f565b5b6040519080825280601f01601f1916602001820160405280156122c55781602001600182028036833780820191505090505b5090505f82602083010190505b600115612326578080600190039150507f3031323334353637383961626364656600000000000000000000000000000000600a86061a8153600a858161231b5761231a613383565b5b0494505f85036122d2575b819350505050919050565b5f73ffffffffffffffffffffffffffffffffffffffff168273ffffffffffffffffffffffffffffffffffffffff16036123a1575f6040517f64a0ae920000000000000000000000000000000000000000000000000000000081526004016123989190612836565b60405180910390fd5b5f6123ad83835f610de3565b90505f73ffffffffffffffffffffffffffffffffffffffff168173ffffffffffffffffffffffffffffffffffffffff161461241f575f6040517f73c6ac6e0000000000000000000000000000000000000000000000000000000081526004016124169190612836565b60405180910390fd5b505050565b6060826124395761243482612602565b6124a9565b5f825114801561245f57505f8473ffffffffffffffffffffffffffffffffffffffff163b145b156124a157836040517f9996b3150000000000000000000000000000000000000000000000000000000081526004016124989190612836565b60405180910390fd5b8190506124aa565b5b9392505050565b5f5f5f90507a184f03e93ff9f4daa797ed6e38ed64bf6a1f010000000000000000831061250d577a184f03e93ff9f4daa797ed6e38ed64bf6a1f010000000000000000838161250357612502613383565b5b0492506040810190505b6d04ee2d6d415b85acef8100000000831061254a576d04ee2d6d415b85acef810000000083816125405761253f613383565b5b0492506020810190505b662386f26fc10000831061257957662386f26fc10000838161256f5761256e613383565b5b0492506010810190505b6305f5e10083106125a2576305f5e100838161259857612597613383565b5b0492506008810190505b61271083106125c75761271083816125bd576125bc613383565b5b0492506004810190505b606483106125ea57606483816125e0576125df613383565b5b0492506002810190505b600a83106125f9576001810190505b80915050919050565b5f8151111561261357805160208201fd5b6040517fd6bda27500000000000000000000000000000000000000000000000000000000815260040160405180910390fd5b5f604051905090565b5f5ffd5b5f5ffd5b5f7fffffffff0000000000000000000000000000000000000000000000000000000082169050919050565b61268a81612656565b8114612694575f5ffd5b50565b5f813590506126a581612681565b92915050565b5f602082840312156126c0576126bf61264e565b5b5f6126cd84828501612697565b91505092915050565b5f8115159050919050565b6126ea816126d6565b82525050565b5f6020820190506127035f8301846126e1565b92915050565b5f81519050919050565b5f82825260208201905092915050565b8281835e5f83830152505050565b5f601f19601f8301169050919050565b5f61274b82612709565b6127558185612713565b9350612765818560208601612723565b61276e81612731565b840191505092915050565b5f6020820190508181035f8301526127918184612741565b905092915050565b5f819050919050565b6127ab81612799565b81146127b5575f5ffd5b50565b5f813590506127c6816127a2565b92915050565b5f602082840312156127e1576127e061264e565b5b5f6127ee848285016127b8565b91505092915050565b5f73ffffffffffffffffffffffffffffffffffffffff82169050919050565b5f612820826127f7565b9050919050565b61283081612816565b82525050565b5f6020820190506128495f830184612827565b92915050565b61285881612816565b8114612862575f5ffd5b50565b5f813590506128738161284f565b92915050565b5f5f6040838503121561288f5761288e61264e565b5b5f61289c85828601612865565b92505060206128ad858286016127b8565b9150509250929050565b5f5f5f606084860312156128ce576128cd61264e565b5b5f6128db86828701612865565b93505060206128ec86828701612865565b92505060406128fd868287016127b8565b9150509250925092565b5f5ffd5b5f5ffd5b7f4e487b71000000000000000000000000000000000000000000000000000000005f52604160045260245ffd5b61294582612731565b810181811067ffffffffffffffff821117156129645761296361290f565b5b80604052505050565b5f612976612645565b9050612982828261293c565b919050565b5f67ffffffffffffffff8211156129a1576129a061290f565b5b6129aa82612731565b9050602081019050919050565b828183375f83830152505050565b5f6129d76129d284612987565b61296d565b9050828152602081018484840111156129f3576129f261290b565b5b6129fe8482856129b7565b509392505050565b5f82601f830112612a1a57612a19612907565b5b8135612a2a8482602086016129c5565b91505092915050565b5f5f60408385031215612a4957612a4861264e565b5b5f83013567ffffffffffffffff811115612a6657612a65612652565b5b612a7285828601612a06565b925050602083013567ffffffffffffffff811115612a9357612a92612652565b5b612a9f85828601612a06565b9150509250929050565b5f67ffffffffffffffff821115612ac357612ac261290f565b5b612acc82612731565b9050602081019050919050565b5f612aeb612ae684612aa9565b61296d565b905082815260208101848484011115612b0757612b0661290b565b5b612b128482856129b7565b509392505050565b5f82601f830112612b2e57612b2d612907565b5b8135612b3e848260208601612ad9565b91505092915050565b5f5f60408385031215612b5d57612b5c61264e565b5b5f612b6a85828601612865565b925050602083013567ffffffffffffffff811115612b8b57612b8a612652565b5b612b9785828601612b1a565b9150509250929050565b5f819050919050565b612bb381612ba1565b82525050565b5f602082019050612bcc5f830184612baa565b92915050565b5f60208284031215612be757612be661264e565b5b5f612bf484828501612865565b91505092915050565b612c0681612799565b82525050565b5f602082019050612c1f5f830184612bfd565b92915050565b612c2e816126d6565b8114612c38575f5ffd5b50565b5f81359050612c4981612c25565b92915050565b5f5f60408385031215612c6557612c6461264e565b5b5f612c7285828601612865565b9250506020612c8385828601612c3b565b9150509250929050565b5f5f5f5f60808587031215612ca557612ca461264e565b5b5f612cb287828801612865565b9450506020612cc387828801612865565b9350506040612cd4878288016127b8565b925050606085013567ffffffffffffffff811115612cf557612cf4612652565b5b612d0187828801612b1a565b91505092959194509250565b5f5f60408385031215612d2357612d2261264e565b5b5f612d3085828601612865565b925050602083013567ffffffffffffffff811115612d5157612d50612652565b5b612d5d85828601612a06565b9150509250929050565b5f5f60408385031215612d7d57612d7c61264e565b5b5f612d8a85828601612865565b9250506020612d9b85828601612865565b9150509250929050565b7f4e487b71000000000000000000000000000000000000000000000000000000005f52602260045260245ffd5b5f6002820490506001821680612de957607f821691505b602082108103612dfc57612dfb612da5565b5b50919050565b5f606082019050612e155f830186612827565b612e226020830185612bfd565b612e2f6040830184612827565b949350505050565b5f819050919050565b5f67ffffffffffffffff82169050919050565b5f819050919050565b5f612e76612e71612e6c84612e37565b612e53565b612e40565b9050919050565b612e8681612e5c565b82525050565b5f602082019050612e9f5f830184612e7d565b92915050565b7f4e487b71000000000000000000000000000000000000000000000000000000005f52601160045260245ffd5b5f612edc82612799565b91507fffffffffffffffffffffffffffffffffffffffffffffffffffffffffffffffff8203612f0e57612f0d612ea5565b5b600182019050919050565b612f2281612ba1565b8114612f2c575f5ffd5b50565b5f81519050612f3d81612f19565b92915050565b5f60208284031215612f5857612f5761264e565b5b5f612f6584828501612f2f565b91505092915050565b5f81519050919050565b5f82825260208201905092915050565b5f612f9282612f6e565b612f9c8185612f78565b9350612fac818560208601612723565b612fb581612731565b840191505092915050565b5f608082019050612fd35f830187612827565b612fe06020830186612827565b612fed6040830185612bfd565b8181036060830152612fff8184612f88565b905095945050505050565b5f8151905061301881612681565b92915050565b5f602082840312156130335761303261264e565b5b5f6130408482850161300a565b91505092915050565b5f81905092915050565b5f61305d82612709565b6130678185613049565b9350613077818560208601612723565b80840191505092915050565b5f61308e8285613053565b915061309a8284613053565b91508190509392505050565b5f819050815f5260205f209050919050565b5f6020601f8301049050919050565b5f82821b905092915050565b5f600883026131027fffffffffffffffffffffffffffffffffffffffffffffffffffffffffffffffff826130c7565b61310c86836130c7565b95508019841693508086168417925050509392505050565b5f61313e61313961313484612799565b612e53565b612799565b9050919050565b5f819050919050565b61315783613124565b61316b61316382613145565b8484546130d3565b825550505050565b5f5f905090565b613182613173565b61318d81848461314e565b505050565b5b818110156131b0576131a55f8261317a565b600181019050613193565b5050565b601f8211156131f5576131c6816130a6565b6131cf846130b8565b810160208510156131de578190505b6131f26131ea856130b8565b830182613192565b50505b505050565b5f82821c905092915050565b5f6132155f19846008026131fa565b1980831691505092915050565b5f61322d8383613206565b9150826002028217905092915050565b61324682612709565b67ffffffffffffffff81111561325f5761325e61290f565b5b6132698254612dd2565b6132748282856131b4565b5f60209050601f8311600181146132a5575f8415613293578287015190505b61329d8582613222565b865550613304565b601f1984166132b3866130a6565b5f5b828110156132da578489015182556001820191506020850194506020810190506132b5565b868310156132f757848901516132f3601f891682613206565b8355505b6001600288020188555050505b505050505050565b5f60408201905061331f5f830185612827565b61332c6020830184612bfd565b9392505050565b5f81905092915050565b5f61334782612f6e565b6133518185613333565b9350613361818560208601612723565b80840191505092915050565b5f613378828461333d565b915081905092915050565b7f4e487b71000000000000000000000000000000000000000000000000000000005f52601260045260245ffdfea2646970667358221220d291c57d484fa33da5c433d56efff42b1668b4efde284bbdbbd5506390f226fd64736f6c634300081e0033","linkReferences":{}},"methodIdentifiers":{"UPGRADE_INTERFACE_VERSION()":"ad3cb1cc","approve(address,uint256)":"095ea7b3","balanceOf(address)":"70a08231","getApproved(uint256)":"081812fc","initialize(string,string)":"4cd88b76","isApprovedForAll(address,address)":"e985e9c5","name()":"06fdde03","owner()":"8da5cb5b","ownerOf(uint256)":"6352211e","proxiableUUID()":"52d1902d","renounceOwnership()":"715018a6","safeMint(address,string)":"d204c45e","safeTransferFrom(address,address,uint256)":"42842e0e","safeTransferFrom(address,address,uint256,bytes)":"b88d4fde","setApprovalForAll(address,bool)":"a22cb465","supportsInterface(bytes4)":"01ffc9a7","symbol()":"95d89b41","tokenURI(uint256)":"c87b56dd","transferFrom(address,address,uint256)":"23b872dd","transferOwnership(address)":"f2fde38b","upgradeToAndCall(address,bytes)":"4f1ef286"},"id":49}