{"abi":[{"type":"constructor","inputs":[],"stateMutability":"nonpayable"},{"type":"function","name":"UPGRADE_INTERFACE_VERSION","inputs":[],"outputs":[{"name":"","type":"string","internalType":"string"}],"stateMutability":"view"},{"type":"function","name":"endorseSkill","inputs":[{"name":"skillName","type":"string","internalType":"string"}],"outputs":[],"stateMutability":"nonpayable"},{"type":"function","name":"getReviewsCount","inputs":[],"outputs":[{"name":"","type":"uint256","internalType":"uint256"}],"stateMutability":"view"},{"type":"function","name":"initialize","inputs":[],"outputs":[],"stateMutability":"nonpayable"},{"type":"function","name":"leaveReview","inputs":[{"name":"reviewText","type":"string","internalType":"string"}],"outputs":[],"stateMutability":"nonpayable"},{"type":"function","name":"owner","inputs":[],"outputs":[{"name":"","type":"address","internalType":"address"}],"stateMutability":"view"},{"type":"function","name":"proxiableUUID","inputs":[],"outputs":[{"name":"","type":"bytes32","internalType":"bytes32"}],"stateMutability":"view"},{"type":"function","name":"renounceOwnership","inputs":[],"outputs":[],"stateMutability":"nonpayable"},{"type":"function","name":"reviews","inputs":[{"name":"","type":"uint256","internalType":"uint256"}],"outputs":[{"name":"reviewer","type":"address","internalType":"address"},{"name":"text","type":"string","internalType":"string"},{"name":"timestamp","type":"uint256","internalType":"uint256"}],"stateMutability":"view"},{"type":"function","name":"skillEndorsements","inputs":[{"name":"","type":"string","internalType":"string"}],"outputs":[{"name":"","type":"uint256","internalType":"uint256"}],"stateMutability":"view"},{"type":"function","name":"transferOwnership","inputs":[{"name":"newOwner","type":"address","internalType":"address"}],"outputs":[],"stateMutability":"nonpayable"},{"type":"function","name":"upgradeToAndCall","inputs":[{"name":"newImplementation","type":"address","internalType":"address"},{"name":"data","type":"bytes","internalType":"bytes"}],"outputs":[],"stateMutability":"payable"},{"type":"event","name":"Initialized","inputs":[{"name":"version","type":"uint64","indexed":false,"internalType":"uint64"}],"anonymous":false},{"type":"event","name":"OwnershipTransferred","inputs":[{"name":"previousOwner","type":"address","indexed":true,"internalType":"address"},{"name":"newOwner","type":"address","indexed":true,"internalType":"address"}],"anonymous":false},{"type":"event","name":"ReviewLeft","inputs":[{"name":"reviewer","type":"address","indexed":true,"internalType":"address"},{"name":"reviewText","type":"string","indexed":false,"internalType":"string"}],"anonymous":false},{"type":"event","name":"SkillEndorsed","inputs":[{"name":"endorser","type":"address","indexed":true,"internalType":"address"},{"name":"skillName","type":"string","indexed":false,"internalType":"string"},{"name":"newEndorsementCount","type":"uint256","indexed":false,"internalType":"uint256"}],"anonymous":false},{"type":"event","name":"Upgraded","inputs":[{"name":"implementation","type":"address","indexed":true,"internalType":"address"}],"anonymous":false},{"type":"error","name":"AddressEmptyCode","inputs":[{"name":"target","type":"address","internalType":"address"}]},{"type":"error","name":"ERC1967InvalidImplementation","inputs":[{"name":"implementation","type":"address","internalType":"address"}]},{"type":"error","name":"ERC1967NonPayable","inputs":[]},{"type":"error","name":"FailedCall","inputs":[]},{"type":"error","name":"InvalidInitialization","inputs":[]},{"type":"error","name":"NotInitializing","inputs":[]},{"type":"error","name":"OwnableInvalidOwner","inputs":[{"name":"owner","type":"address","internalType":"address"}]},{"type":"error","name":"OwnableUnauthorizedAccount","inputs":[{"name":"account","type":"address","internalType":"address"}]},{"type":"error","name":"ReentrancyGuardReentrantCall","inputs":[]},{"type":"error","name":"UUPSUnauthorizedCallContext","inputs":[]},{"type":"error","name":"UUPSUnsupportedProxiableUUID","inputs":[{"name":"slot","type":"bytes32","internalType":"bytes32"}]}],"bytecode":{"object":"0x60a06040523073ffffffffffffffffffffffffffffffffffffffff1660809073ffffffffffffffffffffffffffffffffffffffff16815250348015610042575f5ffd5b5061005161005660201b60201c565b6101d1565b5f61006561015460201b60201c565b9050805f0160089054906101000a900460ff16156100af576040517ff92ee8a900000000000000000000000000000000000000000000000000000000815260040160405180910390fd5b67ffffffffffffffff8016815f015f9054906101000a900467ffffffffffffffff1667ffffffffffffffff16146101515767ffffffffffffffff815f015f6101000a81548167ffffffffffffffff021916908367ffffffffffffffff1602179055507fc7f505b2f371ae2175ee4913f4499e1f2633a7b5936321eed1cdaeb6115181d267ffffffffffffffff60405161014891906101b8565b60405180910390a15b50565b5f5f61016461016d60201b60201c565b90508091505090565b5f7ff0c57e16840df040f15088dc2f81fe391c3923bec73e23a9662efc9c229c6a005f1b905090565b5f67ffffffffffffffff82169050919050565b6101b281610196565b82525050565b5f6020820190506101cb5f8301846101a9565b92915050565b608051611c9d6101f75f395f81816109480152818161099d0152610b570152611c9d5ff3fe6080604052600436106100a6575f3560e01c8063715018a611610063578063715018a6146101a65780638129fc1c146101bc5780638da5cb5b146101d2578063ad3cb1cc146101fc578063e83ddcea14610226578063f2fde38b14610264576100a6565b80631435ba3c146100aa5780632e1083d0146100d457806347b448b8146100fc5780634f1ef2861461012457806352d1902d146101405780636e01fade1461016a575b5f5ffd5b3480156100b5575f5ffd5b506100be61028c565b6040516100cb9190611231565b60405180910390f35b3480156100df575f5ffd5b506100fa60048036038101906100f59190611397565b610298565b005b348015610107575f5ffd5b50610122600480360381019061011d9190611397565b61038d565b005b61013e600480360381019061013991906114d6565b6104f0565b005b34801561014b575f5ffd5b5061015461050f565b6040516101619190611548565b60405180910390f35b348015610175575f5ffd5b50610190600480360381019061018b9190611397565b610540565b60405161019d9190611231565b60405180910390f35b3480156101b1575f5ffd5b506101ba61056c565b005b3480156101c7575f5ffd5b506101d061057f565b005b3480156101dd575f5ffd5b506101e661070f565b6040516101f39190611570565b60405180910390f35b348015610207575f5ffd5b50610210610744565b60405161021d91906115e9565b60405180910390f35b348015610231575f5ffd5b5061024c60048036038101906102479190611633565b61077d565b60405161025b9392919061165e565b60405180910390f35b34801561026f575f5ffd5b5061028a6004803603810190610285919061169a565b610857565b005b5f600180549050905090565b6102a06108db565b5f8151116102e3576040517f08c379a00000000000000000000000000000000000000000000000000000000081526004016102da9061170f565b60405180910390fd5b5f816040516102f29190611767565b90815260200160405180910390205f815480929190610310906117aa565b91905055503373ffffffffffffffffffffffffffffffffffffffff167f217f6734d89a4aeff12ddadcb9fd63675a1400dd164605eb61830bef3df95739825f8460405161035d9190611767565b90815260200160405180910390205460405161037a9291906117f1565b60405180910390a261038a61092f565b50565b6103956108db565b5f8151116103d8576040517f08c379a00000000000000000000000000000000000000000000000000000000081526004016103cf90611869565b60405180910390fd5b600160405180606001604052803373ffffffffffffffffffffffffffffffffffffffff16815260200183815260200142815250908060018154018082558091505060019003905f5260205f2090600302015f909190919091505f820151815f015f6101000a81548173ffffffffffffffffffffffffffffffffffffffff021916908373ffffffffffffffffffffffffffffffffffffffff160217905550602082015181600101908161048a9190611a84565b506040820151816002015550503373ffffffffffffffffffffffffffffffffffffffff167f4d3761abcb192a8ae5909ae1e34f85e8eb8e2d9ce0a3430078d15ca405704b3b826040516104dd91906115e9565b60405180910390a26104ed61092f565b50565b6104f8610946565b61050182610a2c565b61050b8282610a37565b5050565b5f610518610b55565b7f360894a13ba1a3210667c828492db98dca3e2076cc3735a920a3ca505d382bbc5f1b905090565b5f818051602081018201805184825260208301602085012081835280955050505050505f915090505481565b610574610bdc565b61057d5f610c63565b565b5f610588610d34565b90505f815f0160089054906101000a900460ff161590505f825f015f9054906101000a900467ffffffffffffffff1690505f5f8267ffffffffffffffff161480156105d05750825b90505f60018367ffffffffffffffff1614801561060357505f3073ffffffffffffffffffffffffffffffffffffffff163b145b905081158015610611575080155b15610648576040517ff92ee8a900000000000000000000000000000000000000000000000000000000815260040160405180910390fd5b6001855f015f6101000a81548167ffffffffffffffff021916908367ffffffffffffffff1602179055508315610695576001855f0160086101000a81548160ff0219169083151502179055505b61069e33610d47565b6106a6610d5b565b6106ae610d6d565b8315610708575f855f0160086101000a81548160ff0219169083151502179055507fc7f505b2f371ae2175ee4913f4499e1f2633a7b5936321eed1cdaeb6115181d260016040516106ff9190611b9f565b60405180910390a15b5050505050565b5f5f610719610d77565b9050805f015f9054906101000a900473ffffffffffffffffffffffffffffffffffffffff1691505090565b6040518060400160405280600581526020017f352e302e3000000000000000000000000000000000000000000000000000000081525081565b6001818154811061078c575f80fd5b905f5260205f2090600302015f91509050805f015f9054906101000a900473ffffffffffffffffffffffffffffffffffffffff16908060010180546107d0906118b4565b80601f01602080910402602001604051908101604052809291908181526020018280546107fc906118b4565b80156108475780601f1061081e57610100808354040283529160200191610847565b820191905f5260205f20905b81548152906001019060200180831161082a57829003601f168201915b5050505050908060020154905083565b61085f610bdc565b5f73ffffffffffffffffffffffffffffffffffffffff168173ffffffffffffffffffffffffffffffffffffffff16036108cf575f6040517f1e4fbdf70000000000000000000000000000000000000000000000000000000081526004016108c69190611570565b60405180910390fd5b6108d881610c63565b50565b5f6108e4610d9e565b90506002815f015403610923576040517f3ee5aeb500000000000000000000000000000000000000000000000000000000815260040160405180910390fd5b6002815f018190555050565b5f610938610d9e565b90506001815f018190555050565b7f000000000000000000000000000000000000000000000000000000000000000073ffffffffffffffffffffffffffffffffffffffff163073ffffffffffffffffffffffffffffffffffffffff1614806109f357507f000000000000000000000000000000000000000000000000000000000000000073ffffffffffffffffffffffffffffffffffffffff166109da610dc5565b73ffffffffffffffffffffffffffffffffffffffff1614155b15610a2a576040517fe07c8dba00000000000000000000000000000000000000000000000000000000815260040160405180910390fd5b565b610a34610bdc565b50565b8173ffffffffffffffffffffffffffffffffffffffff166352d1902d6040518163ffffffff1660e01b8152600401602060405180830381865afa925050508015610a9f57506040513d601f19601f82011682018060405250810190610a9c9190611be2565b60015b610ae057816040517f4c9c8ce3000000000000000000000000000000000000000000000000000000008152600401610ad79190611570565b60405180910390fd5b7f360894a13ba1a3210667c828492db98dca3e2076cc3735a920a3ca505d382bbc5f1b8114610b4657806040517faa1d49a4000000000000000000000000000000000000000000000000000000008152600401610b3d9190611548565b60405180910390fd5b610b508383610e18565b505050565b7f000000000000000000000000000000000000000000000000000000000000000073ffffffffffffffffffffffffffffffffffffffff163073ffffffffffffffffffffffffffffffffffffffff1614610bda576040517fe07c8dba00000000000000000000000000000000000000000000000000000000815260040160405180910390fd5b565b610be4610e8a565b73ffffffffffffffffffffffffffffffffffffffff16610c0261070f565b73ffffffffffffffffffffffffffffffffffffffff1614610c6157610c25610e8a565b6040517f118cdaa7000000000000000000000000000000000000000000000000000000008152600401610c589190611570565b60405180910390fd5b565b5f610c6c610d77565b90505f815f015f9054906101000a900473ffffffffffffffffffffffffffffffffffffffff16905082825f015f6101000a81548173ffffffffffffffffffffffffffffffffffffffff021916908373ffffffffffffffffffffffffffffffffffffffff1602179055508273ffffffffffffffffffffffffffffffffffffffff168173ffffffffffffffffffffffffffffffffffffffff167f8be0079c531659141344cd1fd0a4f28419497f9722a3daafe3b4186f6b6457e060405160405180910390a3505050565b5f5f610d3e610e91565b90508091505090565b610d4f610eba565b610d5881610efa565b50565b610d63610eba565b610d6b610f7e565b565b610d75610eba565b565b5f7f9016d09d72d40fdae2fd8ceac6b6234c7706214fd39c1cd1e609a0528c199300905090565b5f7f9b779b17422d0df92223018b32b4d1fa46e071723d6817e2486d003becc55f00905090565b5f610df17f360894a13ba1a3210667c828492db98dca3e2076cc3735a920a3ca505d382bbc5f1b610f9d565b5f015f9054906101000a900473ffffffffffffffffffffffffffffffffffffffff16905090565b610e2182610fa6565b8173ffffffffffffffffffffffffffffffffffffffff167fbc7cd75a20ee27fd9adebab32041f755214dbc6bffa90cc0225b39da2e5c2d3b60405160405180910390a25f81511115610e7d57610e77828261106f565b50610e86565b610e856110ef565b5b5050565b5f33905090565b5f7ff0c57e16840df040f15088dc2f81fe391c3923bec73e23a9662efc9c229c6a005f1b905090565b610ec261112b565b610ef8576040517fd7e6bcf800000000000000000000000000000000000000000000000000000000815260040160405180910390fd5b565b610f02610eba565b5f73ffffffffffffffffffffffffffffffffffffffff168173ffffffffffffffffffffffffffffffffffffffff1603610f72575f6040517f1e4fbdf7000000000000000000000000000000000000000000000000000000008152600401610f699190611570565b60405180910390fd5b610f7b81610c63565b50565b610f86610eba565b5f610f8f610d9e565b90506001815f018190555050565b5f819050919050565b5f8173ffffffffffffffffffffffffffffffffffffffff163b0361100157806040517f4c9c8ce3000000000000000000000000000000000000000000000000000000008152600401610ff89190611570565b60405180910390fd5b8061102d7f360894a13ba1a3210667c828492db98dca3e2076cc3735a920a3ca505d382bbc5f1b610f9d565b5f015f6101000a81548173ffffffffffffffffffffffffffffffffffffffff021916908373ffffffffffffffffffffffffffffffffffffffff16021790555050565b60605f5f8473ffffffffffffffffffffffffffffffffffffffff16846040516110989190611c51565b5f60405180830381855af49150503d805f81146110d0576040519150601f19603f3d011682016040523d82523d5f602084013e6110d5565b606091505b50915091506110e5858383611149565b9250505092915050565b5f341115611129576040517fb398979f00000000000000000000000000000000000000000000000000000000815260040160405180910390fd5b565b5f611134610d34565b5f0160089054906101000a900460ff16905090565b60608261115e57611159826111d6565b6111ce565b5f825114801561118457505f8473ffffffffffffffffffffffffffffffffffffffff163b145b156111c657836040517f9996b3150000000000000000000000000000000000000000000000000000000081526004016111bd9190611570565b60405180910390fd5b8190506111cf565b5b9392505050565b5f815111156111e757805160208201fd5b6040517fd6bda27500000000000000000000000000000000000000000000000000000000815260040160405180910390fd5b5f819050919050565b61122b81611219565b82525050565b5f6020820190506112445f830184611222565b92915050565b5f604051905090565b5f5ffd5b5f5ffd5b5f5ffd5b5f5ffd5b5f601f19601f8301169050919050565b7f4e487b71000000000000000000000000000000000000000000000000000000005f52604160045260245ffd5b6112a982611263565b810181811067ffffffffffffffff821117156112c8576112c7611273565b5b80604052505050565b5f6112da61124a565b90506112e682826112a0565b919050565b5f67ffffffffffffffff82111561130557611304611273565b5b61130e82611263565b9050602081019050919050565b828183375f83830152505050565b5f61133b611336846112eb565b6112d1565b9050828152602081018484840111156113575761135661125f565b5b61136284828561131b565b509392505050565b5f82601f83011261137e5761137d61125b565b5b813561138e848260208601611329565b91505092915050565b5f602082840312156113ac576113ab611253565b5b5f82013567ffffffffffffffff8111156113c9576113c8611257565b5b6113d58482850161136a565b91505092915050565b5f73ffffffffffffffffffffffffffffffffffffffff82169050919050565b5f611407826113de565b9050919050565b611417816113fd565b8114611421575f5ffd5b50565b5f813590506114328161140e565b92915050565b5f67ffffffffffffffff82111561145257611451611273565b5b61145b82611263565b9050602081019050919050565b5f61147a61147584611438565b6112d1565b9050828152602081018484840111156114965761149561125f565b5b6114a184828561131b565b509392505050565b5f82601f8301126114bd576114bc61125b565b5b81356114cd848260208601611468565b91505092915050565b5f5f604083850312156114ec576114eb611253565b5b5f6114f985828601611424565b925050602083013567ffffffffffffffff81111561151a57611519611257565b5b611526858286016114a9565b9150509250929050565b5f819050919050565b61154281611530565b82525050565b5f60208201905061155b5f830184611539565b92915050565b61156a816113fd565b82525050565b5f6020820190506115835f830184611561565b92915050565b5f81519050919050565b5f82825260208201905092915050565b8281835e5f83830152505050565b5f6115bb82611589565b6115c58185611593565b93506115d58185602086016115a3565b6115de81611263565b840191505092915050565b5f6020820190508181035f83015261160181846115b1565b905092915050565b61161281611219565b811461161c575f5ffd5b50565b5f8135905061162d81611609565b92915050565b5f6020828403121561164857611647611253565b5b5f6116558482850161161f565b91505092915050565b5f6060820190506116715f830186611561565b818103602083015261168381856115b1565b90506116926040830184611222565b949350505050565b5f602082840312156116af576116ae611253565b5b5f6116bc84828501611424565b91505092915050565b7f536b696c6c206e616d652063616e6e6f7420626520656d7074790000000000005f82015250565b5f6116f9601a83611593565b9150611704826116c5565b602082019050919050565b5f6020820190508181035f830152611726816116ed565b9050919050565b5f81905092915050565b5f61174182611589565b61174b818561172d565b935061175b8185602086016115a3565b80840191505092915050565b5f6117728284611737565b915081905092915050565b7f4e487b71000000000000000000000000000000000000000000000000000000005f52601160045260245ffd5b5f6117b482611219565b91507fffffffffffffffffffffffffffffffffffffffffffffffffffffffffffffffff82036117e6576117e561177d565b5b600182019050919050565b5f6040820190508181035f83015261180981856115b1565b90506118186020830184611222565b9392505050565b7f52657669657720746578742063616e6e6f7420626520656d70747900000000005f82015250565b5f611853601b83611593565b915061185e8261181f565b602082019050919050565b5f6020820190508181035f83015261188081611847565b9050919050565b7f4e487b71000000000000000000000000000000000000000000000000000000005f52602260045260245ffd5b5f60028204905060018216806118cb57607f821691505b6020821081036118de576118dd611887565b5b50919050565b5f819050815f5260205f209050919050565b5f6020601f8301049050919050565b5f82821b905092915050565b5f600883026119407fffffffffffffffffffffffffffffffffffffffffffffffffffffffffffffffff82611905565b61194a8683611905565b95508019841693508086168417925050509392505050565b5f819050919050565b5f61198561198061197b84611219565b611962565b611219565b9050919050565b5f819050919050565b61199e8361196b565b6119b26119aa8261198c565b848454611911565b825550505050565b5f5f905090565b6119c96119ba565b6119d4818484611995565b505050565b5b818110156119f7576119ec5f826119c1565b6001810190506119da565b5050565b601f821115611a3c57611a0d816118e4565b611a16846118f6565b81016020851015611a25578190505b611a39611a31856118f6565b8301826119d9565b50505b505050565b5f82821c905092915050565b5f611a5c5f1984600802611a41565b1980831691505092915050565b5f611a748383611a4d565b9150826002028217905092915050565b611a8d82611589565b67ffffffffffffffff811115611aa657611aa5611273565b5b611ab082546118b4565b611abb8282856119fb565b5f60209050601f831160018114611aec575f8415611ada578287015190505b611ae48582611a69565b865550611b4b565b601f198416611afa866118e4565b5f5b82811015611b2157848901518255600182019150602085019450602081019050611afc565b86831015611b3e5784890151611b3a601f891682611a4d565b8355505b6001600288020188555050505b505050505050565b5f819050919050565b5f67ffffffffffffffff82169050919050565b5f611b89611b84611b7f84611b53565b611962565b611b5c565b9050919050565b611b9981611b6f565b82525050565b5f602082019050611bb25f830184611b90565b92915050565b611bc181611530565b8114611bcb575f5ffd5b50565b5f81519050611bdc81611bb8565b92915050565b5f60208284031215611bf757611bf6611253565b5b5f611c0484828501611bce565b91505092915050565b5f81519050919050565b5f81905092915050565b5f611c2b82611c0d565b611c358185611c17565b9350611c458185602086016115a3565b80840191505092915050565b5f611c5c8284611c21565b91508190509291505056fea264697066735822122002de789c3b23d67e18066fe021cc84894958fa49fed9ce381c81d49d44911d1964736f6c634300081e0033","linkReferences":{}},"methodIdentifiers":{"UPGRADE_INTERFACE_VERSION()":"ad3cb1cc","endorseSkill(string)":"2e1083d0","getReviewsCount()":"1435ba3c","initialize()":"8129fc1c","leaveReview(string)":"47b448b8","owner()":"8da5cb5b","proxiableUUID()":"52d1902d","renounceOwnership()":"715018a6","reviews(uint256)":"e83ddcea","skillEndorsements(string)":"6e01fade","transferOwnership(address)":"f2fde38b","upgradeToAndCall(address,bytes)":"4f1ef286"},"id":33}